{
  "contractName": "Election",
  "abi": [
    {
      "constant": true,
      "inputs": [],
      "name": "candidatesCount",
      "outputs": [
        {
          "name": "",
          "type": "uint256"
        }
      ],
      "payable": false,
      "stateMutability": "view",
      "type": "function",
      "signature": "0x2d35a8a2"
    },
    {
      "constant": true,
      "inputs": [
        {
          "name": "",
          "type": "uint256"
        }
      ],
      "name": "candidates",
      "outputs": [
        {
          "name": "candidateID",
          "type": "uint256"
        },
        {
          "name": "candidateName",
          "type": "string"
        },
        {
          "name": "voteReceived",
          "type": "uint256"
        }
      ],
      "payable": false,
      "stateMutability": "view",
      "type": "function",
      "signature": "0x3477ee2e"
    },
    {
      "constant": true,
      "inputs": [
        {
          "name": "",
          "type": "uint256"
        }
      ],
      "name": "winnerList",
      "outputs": [
        {
          "name": "candidateID",
          "type": "uint256"
        },
        {
          "name": "candidateName",
          "type": "string"
        },
        {
          "name": "voteReceived",
          "type": "uint256"
        }
      ],
      "payable": false,
      "stateMutability": "view",
      "type": "function",
      "signature": "0x5578027e"
    },
    {
      "constant": true,
      "inputs": [
        {
          "name": "",
          "type": "address"
        }
      ],
      "name": "voters",
      "outputs": [
        {
          "name": "",
          "type": "bool"
        }
      ],
      "payable": false,
      "stateMutability": "view",
      "type": "function",
      "signature": "0xa3ec138d"
    },
    {
      "anonymous": false,
      "inputs": [
        {
          "indexed": false,
          "name": "",
          "type": "bool"
        }
      ],
      "name": "periodControl",
      "type": "event",
      "signature": "0xf43a61143412a249fdbadc05a387b2e0782185f1c16ddcba7d2550fcd7f4c602"
    },
    {
      "anonymous": false,
      "inputs": [
        {
          "indexed": false,
          "name": "",
          "type": "bool"
        }
      ],
      "name": "voteValidation",
      "type": "event",
      "signature": "0xbaec33074f7ff33ac5a529f86fb4d070dea191cac674ce9d6ebda32f6e35f39e"
    },
    {
      "anonymous": false,
      "inputs": [
        {
          "indexed": false,
          "name": "",
          "type": "uint256"
        },
        {
          "indexed": false,
          "name": "",
          "type": "string"
        },
        {
          "indexed": false,
          "name": "",
          "type": "uint256"
        }
      ],
      "name": "electionWinner",
      "type": "event",
      "signature": "0x378cd642441301ade03dcf46f4f23ec16d1b0f21348a26e3fcef42203a338cc1"
    },
    {
      "constant": false,
      "inputs": [
        {
          "name": "_name",
          "type": "string"
        }
      ],
      "name": "addCandidate",
      "outputs": [],
      "payable": false,
      "stateMutability": "nonpayable",
      "type": "function",
      "signature": "0x462e91ec"
    },
    {
      "constant": false,
      "inputs": [
        {
          "name": "_candidateID",
          "type": "uint256"
        }
      ],
      "name": "vote",
      "outputs": [],
      "payable": false,
      "stateMutability": "nonpayable",
      "type": "function",
      "signature": "0x0121b93f"
    },
    {
      "constant": false,
      "inputs": [],
      "name": "startElection",
      "outputs": [],
      "payable": false,
      "stateMutability": "nonpayable",
      "type": "function",
      "signature": "0x62d73eb8"
    },
    {
      "constant": false,
      "inputs": [],
      "name": "endElection",
      "outputs": [],
      "payable": false,
      "stateMutability": "nonpayable",
      "type": "function",
      "signature": "0x59f78468"
    },
    {
      "constant": false,
      "inputs": [],
      "name": "result",
      "outputs": [],
      "payable": false,
      "stateMutability": "nonpayable",
      "type": "function",
      "signature": "0x65372147"
    },
    {
      "constant": false,
      "inputs": [
        {
          "name": "o",
          "type": "address"
        }
      ],
      "name": "setOracle",
      "outputs": [],
      "payable": false,
      "stateMutability": "nonpayable",
      "type": "function",
      "signature": "0x7adbf973"
    },
    {
      "constant": true,
      "inputs": [],
      "name": "getOracle",
      "outputs": [
        {
          "name": "",
          "type": "address"
        }
      ],
      "payable": false,
      "stateMutability": "view",
      "type": "function",
      "signature": "0x833b1fce"
    }
  ],
  "bytecode": "0x608060405234801561001057600080fd5b5061117f806100206000396000f3fe608060405234801561001057600080fd5b50600436106100c6576000357c01000000000000000000000000000000000000000000000000000000009004806359f784681161008e57806359f784681461033c57806362d73eb81461034657806365372147146103505780637adbf9731461035a578063833b1fce1461039e578063a3ec138d146103e8576100c6565b80630121b93f146100cb5780632d35a8a2146100f95780633477ee2e14610117578063462e91ec146101cc5780635578027e14610287575b600080fd5b6100f7600480360360208110156100e157600080fd5b8101908080359060200190929190505050610444565b005b6101016106f5565b6040518082815260200191505060405180910390f35b6101436004803603602081101561012d57600080fd5b81019080803590602001909291905050506106fb565b6040518084815260200180602001838152602001828103825284818151815260200191508051906020019080838360005b8381101561018f578082015181840152602081019050610174565b50505050905090810190601f1680156101bc5780820380516001836020036101000a031916815260200191505b5094505050505060405180910390f35b610285600480360360208110156101e257600080fd5b81019080803590602001906401000000008111156101ff57600080fd5b82018360208201111561021157600080fd5b8035906020019184600183028401116401000000008311171561023357600080fd5b91908080601f016020809104026020016040519081016040528093929190818152602001838380828437600081840152601f19601f8201169050808301925050505050505091929192905050506107bd565b005b6102b36004803603602081101561029d57600080fd5b810190808035906020019092919050505061083a565b6040518084815260200180602001838152602001828103825284818151815260200191508051906020019080838360005b838110156102ff5780820151818401526020810190506102e4565b50505050905090810190601f16801561032c5780820380516001836020036101000a031916815260200191505b5094505050505060405180910390f35b61034461090b565b005b61034e6109ee565b005b610358610ad1565b005b61039c6004803603602081101561037057600080fd5b81019080803573ffffffffffffffffffffffffffffffffffffffff169060200190929190505050610f79565b005b6103a6610fbc565b604051808273ffffffffffffffffffffffffffffffffffffffff1673ffffffffffffffffffffffffffffffffffffffff16815260200191505060405180910390f35b61042a600480360360208110156103fe57600080fd5b81019080803573ffffffffffffffffffffffffffffffffffffffff169060200190929190505050610fe5565b604051808215151515815260200191505060405180910390f35b600260003373ffffffffffffffffffffffffffffffffffffffff1673ffffffffffffffffffffffffffffffffffffffff16815260200190815260200160002060009054906101000a900460ff1615801561049e5750600081115b80156104ac57506004548111155b15610611576001600260003373ffffffffffffffffffffffffffffffffffffffff1673ffffffffffffffffffffffffffffffffffffffff16815260200190815260200160002060006101000a81548160ff02191690831515021790555060036000828152602001908152602001600020600201600081548092919060010191905055506000809054906101000a900473ffffffffffffffffffffffffffffffffffffffff1673ffffffffffffffffffffffffffffffffffffffff1663698ccf1b3060016040518363ffffffff167c0100000000000000000000000000000000000000000000000000000000028152600401808373ffffffffffffffffffffffffffffffffffffffff1673ffffffffffffffffffffffffffffffffffffffff1681526020018215151515815260200192505050600060405180830381600087803b1580156105f857600080fd5b505af115801561060c573d6000803e3d6000fd5b505050505b6000809054906101000a900473ffffffffffffffffffffffffffffffffffffffff1673ffffffffffffffffffffffffffffffffffffffff1663698ccf1b3060006040518363ffffffff167c0100000000000000000000000000000000000000000000000000000000028152600401808373ffffffffffffffffffffffffffffffffffffffff1673ffffffffffffffffffffffffffffffffffffffff1681526020018215151515815260200192505050600060405180830381600087803b1580156106da57600080fd5b505af11580156106ee573d6000803e3d6000fd5b5050505050565b60045481565b6003602052806000526040600020600091509050806000015490806001018054600181600116156101000203166002900480601f0160208091040260200160405190810160405280929190818152602001828054600181600116156101000203166002900480156107ad5780601f10610782576101008083540402835291602001916107ad565b820191906000526020600020905b81548152906001019060200180831161079057829003601f168201915b5050505050908060020154905083565b60046000815480929190600101919050555060606040519081016040528060045481526020018281526020016000815250600360006004548152602001908152602001600020600082015181600001556020820151816001019080519060200190610829929190611005565b506040820151816002015590505050565b60018181548110151561084957fe5b9060005260206000209060030201600091509050806000015490806001018054600181600116156101000203166002900480601f0160208091040260200160405190810160405280929190818152602001828054600181600116156101000203166002900480156108fb5780601f106108d0576101008083540402835291602001916108fb565b820191906000526020600020905b8154815290600101906020018083116108de57829003601f168201915b5050505050908060020154905083565b6000809054906101000a900473ffffffffffffffffffffffffffffffffffffffff1673ffffffffffffffffffffffffffffffffffffffff166384225f4c3060006040518363ffffffff167c0100000000000000000000000000000000000000000000000000000000028152600401808373ffffffffffffffffffffffffffffffffffffffff1673ffffffffffffffffffffffffffffffffffffffff1681526020018215151515815260200192505050600060405180830381600087803b1580156109d457600080fd5b505af11580156109e8573d6000803e3d6000fd5b50505050565b6000809054906101000a900473ffffffffffffffffffffffffffffffffffffffff1673ffffffffffffffffffffffffffffffffffffffff166384225f4c3060016040518363ffffffff167c0100000000000000000000000000000000000000000000000000000000028152600401808373ffffffffffffffffffffffffffffffffffffffff1673ffffffffffffffffffffffffffffffffffffffff1681526020018215151515815260200192505050600060405180830381600087803b158015610ab757600080fd5b505af1158015610acb573d6000803e3d6000fd5b50505050565b610ad9611085565b600360008081526020019081526020016000206060604051908101604052908160008201548152602001600182018054600181600116156101000203166002900480601f016020809104026020016040519081016040528092919081815260200182805460018160011615610100020316600290048015610b9b5780601f10610b7057610100808354040283529160200191610b9b565b820191906000526020600020905b815481529060010190602001808311610b7e57829003601f168201915b50505050508152602001600282015481525050905060008090505b600454811015610d875760008090505b600454811015610cd757826040015160036000838152602001908152602001600020600201541115610cca57600360008281526020019081526020016000206060604051908101604052908160008201548152602001600182018054600181600116156101000203166002900480601f016020809104026020016040519081016040528092919081815260200182805460018160011615610100020316600290048015610cb45780601f10610c8957610100808354040283529160200191610cb4565b820191906000526020600020905b815481529060010190602001808311610c9757829003601f168201915b5050505050815260200160028201548152505092505b8080600101915050610bc6565b50816040015160036000838152602001908152602001600020600201541415610d7a57600160036000838152602001908152602001600020908060018154018082558091505090600182039060005260206000209060030201600090919290919091506000820154816000015560018201816001019080546001816001161561010002031660029004610d6b9291906110a7565b50600282015481600201555050505b8080600101915050610bb6565b5060008090505b600180549050811015610f75576000809054906101000a900473ffffffffffffffffffffffffffffffffffffffff1673ffffffffffffffffffffffffffffffffffffffff166397d7691730600184815481101515610de857fe5b906000526020600020906003020160000154600185815481101515610e0957fe5b9060005260206000209060030201600101600186815481101515610e2957fe5b9060005260206000209060030201600201546040518563ffffffff167c0100000000000000000000000000000000000000000000000000000000028152600401808573ffffffffffffffffffffffffffffffffffffffff1673ffffffffffffffffffffffffffffffffffffffff16815260200184815260200180602001838152602001828103825284818154600181600116156101000203166002900481526020019150805460018160011615610100020316600290048015610f2d5780601f10610f0257610100808354040283529160200191610f2d565b820191906000526020600020905b815481529060010190602001808311610f1057829003601f168201915b505095505050505050600060405180830381600087803b158015610f5057600080fd5b505af1158015610f64573d6000803e3d6000fd5b505050508080600101915050610d8e565b5050565b806000806101000a81548173ffffffffffffffffffffffffffffffffffffffff021916908373ffffffffffffffffffffffffffffffffffffffff16021790555050565b60008060009054906101000a900473ffffffffffffffffffffffffffffffffffffffff16905090565b60026020528060005260406000206000915054906101000a900460ff1681565b828054600181600116156101000203166002900490600052602060002090601f016020900481019282601f1061104657805160ff1916838001178555611074565b82800160010185558215611074579182015b82811115611073578251825591602001919060010190611058565b5b509050611081919061112e565b5090565b6060604051908101604052806000815260200160608152602001600081525090565b828054600181600116156101000203166002900490600052602060002090601f016020900481019282601f106110e0578054855561111d565b8280016001018555821561111d57600052602060002091601f016020900482015b8281111561111c578254825591600101919060010190611101565b5b50905061112a919061112e565b5090565b61115091905b8082111561114c576000816000905550600101611134565b5090565b9056fea165627a7a723058207eafc0b7b86f1e730923b131be1130156f14a286d08a5739acb3570a2da26adf0029",
  "source": "pragma solidity ^0.5.2;\nimport \"./ElectionOracle.sol\";\n\ncontract Election { //the whole election process is controlled by admin\n    \n    address oracle_address;\n    Candidate[] public winnerList;\n    \n    struct Candidate {\n        uint candidateID;\n        string candidateName;\n        uint voteReceived;\n    }\n    \n    mapping(address => bool) public voters; //avoid duplicated vote from users\n    \n    mapping(uint=>Candidate) public candidates; //store candidates info\n    \n    uint public candidatesCount; //number of candidates in the election\n    \n    event periodControl(bool); //control the election period\n    event voteValidation(bool); //tell if the vote is valid\n    event electionWinner(uint,string,uint); //emit winners' info\n    \n    function addCandidate(string memory _name) public { //candidate is added by admin\n        candidatesCount++;\n        candidates[candidatesCount] = Candidate(candidatesCount, _name, 0);\n    }\n    \n    function vote(uint _candidateID) public {\n        //check whether the user voted before and\n        //check whether there are valid candidates for voting\n        if(!voters[msg.sender] && _candidateID > 0 && _candidateID <= candidatesCount) {\n        //record down the voter to avoid duplicated vote\n        voters[msg.sender] = true;\n        //update candidate vote recevied\n        candidates[_candidateID].voteReceived++;\n        //tell the console it is a valid vote\n        ElectionOracle(oracle_address).voteReceivedValidation(address(this),true);\n        }\n        //tell the console it is a invalid vote\n        ElectionOracle(oracle_address).voteReceivedValidation(address(this),false);\n    }\n    \n    function startElection() public {\n        //start the election\n        ElectionOracle(oracle_address).electionPeriodControl(address(this),true);\n    }\n    \n    function endElection() public {\n        //end the election\n        ElectionOracle(oracle_address).electionPeriodControl(address(this),false);\n    }\n    \n    function result() public {\n        Candidate memory winner = candidates[0];\n        //find out the election winner\n        for(uint i=0;i<candidatesCount;i++) {\n            for(uint j=0;j<candidatesCount;j++) {\n                if(candidates[j].voteReceived > winner.voteReceived){\n                winner = candidates[j];\n                }\n            }\n        //double check if there are candidates with same amount of votes\n        if(candidates[i].voteReceived == winner.voteReceived)\n        winnerList.push(candidates[i]);\n        }\n        //emit all winners to the console\n        for(uint i=0;i<winnerList.length;i++) {\n            ElectionOracle(oracle_address).getWinnerData(address(this)\n            ,winnerList[i].candidateID\n            ,winnerList[i].candidateName\n            ,winnerList[i].voteReceived);\n        }\n    } \n    \n    function setOracle(address o) public {\n        oracle_address = o;\n    }\n    \n    function getOracle() public view returns (address) {\n        return oracle_address;\n    }\n}",
  "sourcePath": "/Users/Unnat/Code/CS4389_Project/contracts/Election_withOracle.sol",
  "compiler": {
    "name": "solc",
    "version": "0.5.2+commit.1df8f40c.Emscripten.clang"
  },
  "schemaVersion": "3.0.6",
  "updatedAt": "2019-04-24T12:57:57.992Z",
  "devdoc": {
    "methods": {}
  },
  "userdoc": {
    "methods": {}
  }
}