{
  "contractName": "ElectionOracle",
  "abi": [
    {
      "anonymous": false,
      "inputs": [
        {
          "indexed": false,
          "name": "me",
          "type": "address"
        },
        {
          "indexed": false,
          "name": "winnerID",
          "type": "uint256"
        },
        {
          "indexed": false,
          "name": "voteReceived",
          "type": "uint256"
        }
      ],
      "name": "ElectionWinner",
      "type": "event",
      "signature": "0x5230221478f17a42a32cbb62b297c0d5c023866e532505b37dabac661334dee0"
    },
    {
      "anonymous": false,
      "inputs": [
        {
          "indexed": false,
          "name": "me",
          "type": "address"
        },
        {
          "indexed": false,
          "name": "validity",
          "type": "bool"
        },
        {
          "indexed": false,
          "name": "candidateID",
          "type": "uint256"
        }
      ],
      "name": "voteValidation",
      "type": "event",
      "signature": "0x02493ea5cef4c5720ae49e8dcbf9cf4a71f22cbffdef46059fa870210594cc42"
    },
    {
      "constant": false,
      "inputs": [
        {
          "name": "client_address",
          "type": "address"
        },
        {
          "name": "_winnerID",
          "type": "uint256"
        },
        {
          "name": "_voteReceived",
          "type": "uint256"
        }
      ],
      "name": "getWinnerData",
      "outputs": [],
      "payable": false,
      "stateMutability": "nonpayable",
      "type": "function",
      "signature": "0x0d17fcc1"
    },
    {
      "constant": false,
      "inputs": [
        {
          "name": "client_address",
          "type": "address"
        },
        {
          "name": "validity",
          "type": "bool"
        },
        {
          "name": "_candidateID",
          "type": "uint256"
        }
      ],
      "name": "voteReceivedValidation",
      "outputs": [],
      "payable": false,
      "stateMutability": "nonpayable",
      "type": "function",
      "signature": "0xf26240b8"
    }
  ],
  "bytecode": "0x608060405234801561001057600080fd5b5061022a806100206000396000f3fe608060405234801561001057600080fd5b5060043610610053576000357c0100000000000000000000000000000000000000000000000000000000900480630d17fcc114610058578063f26240b8146100b0575b600080fd5b6100ae6004803603606081101561006e57600080fd5b81019080803573ffffffffffffffffffffffffffffffffffffffff169060200190929190803590602001909291908035906020019092919050505061010a565b005b610108600480360360608110156100c657600080fd5b81019080803573ffffffffffffffffffffffffffffffffffffffff16906020019092919080351515906020019092919080359060200190929190505050610182565b005b7f5230221478f17a42a32cbb62b297c0d5c023866e532505b37dabac661334dee0838383604051808473ffffffffffffffffffffffffffffffffffffffff1673ffffffffffffffffffffffffffffffffffffffff168152602001838152602001828152602001935050505060405180910390a1505050565b7f02493ea5cef4c5720ae49e8dcbf9cf4a71f22cbffdef46059fa870210594cc42838383604051808473ffffffffffffffffffffffffffffffffffffffff1673ffffffffffffffffffffffffffffffffffffffff16815260200183151515158152602001828152602001935050505060405180910390a150505056fea165627a7a72305820d1366d1ff90425f9c2949e004605e93417d744c70c57ab92e4050b16136ec3690029",
  "source": "pragma solidity ^0.5.2;\n\ncontract ElectionOracle {\n    \n    //emit winners' info\n    event ElectionWinner(address me\n    ,uint winnerID\n    ,uint voteReceived); \n    \n    //tell if the vote is valid\n    event voteValidation(address me, bool validity, uint candidateID);\n\n    function getWinnerData(address client_address, uint _winnerID, uint _voteReceived) external {\n        emit ElectionWinner(client_address,_winnerID,_voteReceived);\n    }\n    \n    function voteReceivedValidation(address client_address, bool validity, uint _candidateID) external {\n        emit voteValidation(client_address, validity, _candidateID);\n    }\n}",
  "sourcePath": "/Users/Unnat/Code/CS4389_Project/contracts/ElectionOracle.sol",
  "compiler": {
    "name": "solc",
    "version": "0.5.2+commit.1df8f40c.Emscripten.clang"
  },
  "schemaVersion": "3.0.6",
  "updatedAt": "2019-04-25T13:49:24.799Z",
  "devdoc": {
    "methods": {}
  },
  "userdoc": {
    "methods": {}
  }
}