{
  "contractName": "Election",
  "abi": [
    {
      "constant": true,
      "inputs": [],
      "name": "candidatesCount",
      "outputs": [
        {
          "name": "",
          "type": "uint256"
        }
      ],
      "payable": false,
      "stateMutability": "view",
      "type": "function"
    },
    {
      "constant": true,
      "inputs": [
        {
          "name": "",
          "type": "uint256"
        }
      ],
      "name": "candidates",
      "outputs": [
        {
          "name": "candidateID",
          "type": "uint256"
        },
        {
          "name": "voteReceived",
          "type": "uint256"
        }
      ],
      "payable": false,
      "stateMutability": "view",
      "type": "function"
    },
    {
      "constant": true,
      "inputs": [
        {
          "name": "",
          "type": "uint256"
        }
      ],
      "name": "winnerList",
      "outputs": [
        {
          "name": "candidateID",
          "type": "uint256"
        },
        {
          "name": "voteReceived",
          "type": "uint256"
        }
      ],
      "payable": false,
      "stateMutability": "view",
      "type": "function"
    },
    {
      "anonymous": false,
      "inputs": [
        {
          "indexed": false,
          "name": "me",
          "type": "address"
        },
        {
          "indexed": false,
          "name": "status",
          "type": "bool"
        }
      ],
      "name": "periodControl",
      "type": "event"
    },
    {
      "anonymous": false,
      "inputs": [
        {
          "indexed": false,
          "name": "me",
          "type": "address"
        },
        {
          "indexed": false,
          "name": "validity",
          "type": "bool"
        },
        {
          "indexed": false,
          "name": "_candidateName",
          "type": "string"
        }
      ],
      "name": "voteValidation",
      "type": "event"
    },
    {
      "anonymous": false,
      "inputs": [
        {
          "indexed": false,
          "name": "me",
          "type": "address"
        },
        {
          "indexed": false,
          "name": "winnerID",
          "type": "uint256"
        },
        {
          "indexed": false,
          "name": "voteReceived",
          "type": "uint256"
        }
      ],
      "name": "electionWinner",
      "type": "event"
    },
    {
      "constant": false,
      "inputs": [],
      "name": "addCandidate",
      "outputs": [],
      "payable": false,
      "stateMutability": "nonpayable",
      "type": "function"
    },
    {
      "constant": false,
      "inputs": [
        {
          "name": "_candidateID",
          "type": "uint256"
        }
      ],
      "name": "vote",
      "outputs": [],
      "payable": false,
      "stateMutability": "nonpayable",
      "type": "function"
    },
    {
      "constant": false,
      "inputs": [],
      "name": "finalResult",
      "outputs": [],
      "payable": false,
      "stateMutability": "nonpayable",
      "type": "function"
    },
    {
      "constant": true,
      "inputs": [
        {
          "name": "_candidateID",
          "type": "uint256"
        }
      ],
      "name": "currentResult",
      "outputs": [
        {
          "name": "",
          "type": "uint256"
        },
        {
          "name": "",
          "type": "uint256"
        }
      ],
      "payable": false,
      "stateMutability": "view",
      "type": "function"
    },
    {
      "constant": false,
      "inputs": [],
      "name": "startElection",
      "outputs": [],
      "payable": false,
      "stateMutability": "nonpayable",
      "type": "function"
    },
    {
      "constant": false,
      "inputs": [],
      "name": "endElection",
      "outputs": [],
      "payable": false,
      "stateMutability": "nonpayable",
      "type": "function"
    },
    {
      "constant": false,
      "inputs": [
        {
          "name": "o",
          "type": "address"
        }
      ],
      "name": "setOracle",
      "outputs": [],
      "payable": false,
      "stateMutability": "nonpayable",
      "type": "function"
    },
    {
      "constant": true,
      "inputs": [],
      "name": "getOracle",
      "outputs": [
        {
          "name": "",
          "type": "address"
        }
      ],
      "payable": false,
      "stateMutability": "view",
      "type": "function"
    },
    {
      "constant": false,
      "inputs": [],
      "name": "callbackWinnerRecord",
      "outputs": [],
      "payable": false,
      "stateMutability": "nonpayable",
      "type": "function"
    },
    {
      "constant": false,
      "inputs": [
        {
          "name": "_candidateName",
          "type": "string"
        }
      ],
      "name": "callbackVoteRecord",
      "outputs": [],
      "payable": false,
      "stateMutability": "nonpayable",
      "type": "function"
    }
  ],
  "bytecode": "0x608060405234801561001057600080fd5b50610d0a806100206000396000f3fe608060405234801561001057600080fd5b50600436106100ec576000357c01000000000000000000000000000000000000000000000000000000009004806362d73eb8116100a9578063833b1fce11610083578063833b1fce1461027a578063d1e00fcf146102c4578063e55d8a75146102ce578063f3a8286f14610389576100ec565b806362d73eb81461022257806375043ebb1461022c5780637adbf97314610236576100ec565b80630121b93f146100f15780632d35a8a21461011f5780633477ee2e1461013d5780635578027e1461018657806359565f6f146101cf57806359f7846814610218575b600080fd5b61011d6004803603602081101561010757600080fd5b8101908080359060200190929190505050610393565b005b610127610654565b6040518082815260200191505060405180910390f35b6101696004803603602081101561015357600080fd5b810190808035906020019092919050505061065a565b604051808381526020018281526020019250505060405180910390f35b6101b26004803603602081101561019c57600080fd5b810190808035906020019092919050505061067e565b604051808381526020018281526020019250505060405180910390f35b6101fb600480360360208110156101e557600080fd5b81019080803590602001909291905050506106b1565b604051808381526020018281526020019250505060405180910390f35b6102206106d5565b005b61022a610747565b005b6102346107b9565b005b6102786004803603602081101561024c57600080fd5b81019080803573ffffffffffffffffffffffffffffffffffffffff169060200190929190505050610811565b005b610282610854565b604051808273ffffffffffffffffffffffffffffffffffffffff1673ffffffffffffffffffffffffffffffffffffffff16815260200191505060405180910390f35b6102cc61087d565b005b610387600480360360208110156102e457600080fd5b810190808035906020019064010000000081111561030157600080fd5b82018360208201111561031357600080fd5b8035906020019184600183028401116401000000008311171561033557600080fd5b91908080601f016020809104026020016040519081016040528093929190818152602001838380828437600081840152601f19601f820116905080830192505050505050509192919290505050610953565b005b610391610a33565b005b600260003373ffffffffffffffffffffffffffffffffffffffff1673ffffffffffffffffffffffffffffffffffffffff16815260200190815260200160002060009054906101000a900460ff161580156103ed5750600081115b80156103fb57506004548111155b15610568576001600260003373ffffffffffffffffffffffffffffffffffffffff1673ffffffffffffffffffffffffffffffffffffffff16815260200190815260200160002060006101000a81548160ff02191690831515021790555060036000828152602001908152602001600020600101600081548092919060010191905055506000809054906101000a900473ffffffffffffffffffffffffffffffffffffffff1673ffffffffffffffffffffffffffffffffffffffff1663f26240b8336001846040518463ffffffff167c0100000000000000000000000000000000000000000000000000000000028152600401808473ffffffffffffffffffffffffffffffffffffffff1673ffffffffffffffffffffffffffffffffffffffff168152602001831515151581526020018281526020019350505050600060405180830381600087803b15801561054f57600080fd5b505af1158015610563573d6000803e3d6000fd5b505050505b6000809054906101000a900473ffffffffffffffffffffffffffffffffffffffff1673ffffffffffffffffffffffffffffffffffffffff1663f26240b8336000846040518463ffffffff167c0100000000000000000000000000000000000000000000000000000000028152600401808473ffffffffffffffffffffffffffffffffffffffff1673ffffffffffffffffffffffffffffffffffffffff168152602001831515151581526020018281526020019350505050600060405180830381600087803b15801561063957600080fd5b505af115801561064d573d6000803e3d6000fd5b5050505050565b60045481565b60036020528060005260406000206000915090508060000154908060010154905082565b60018181548110151561068d57fe5b90600052602060002090600202016000915090508060000154908060010154905082565b60008082600360008581526020019081526020016000206001015491509150915091565b7feab25f4a283ebd00f95e6c0fbaa4b5d98a04380c240e10c6d7132b87d44354b0306000604051808373ffffffffffffffffffffffffffffffffffffffff1673ffffffffffffffffffffffffffffffffffffffff168152602001821515151581526020019250505060405180910390a1565b7feab25f4a283ebd00f95e6c0fbaa4b5d98a04380c240e10c6d7132b87d44354b0306001604051808373ffffffffffffffffffffffffffffffffffffffff1673ffffffffffffffffffffffffffffffffffffffff168152602001821515151581526020019250505060405180910390a1565b6004600081548092919060010191905055506040805190810160405280600454815260200160008152506003600060045481526020019081526020016000206000820151816000015560208201518160010155905050565b806000806101000a81548173ffffffffffffffffffffffffffffffffffffffff021916908373ffffffffffffffffffffffffffffffffffffffff16021790555050565b60008060009054906101000a900473ffffffffffffffffffffffffffffffffffffffff16905090565b60008090505b600180549050811015610950577f73917e92e37975efc338f61a1c9bfcb9aa7f883723c84d36af1d8b77f3f31b65306001838154811015156108c157fe5b9060005260206000209060020201600001546001848154811015156108e257fe5b906000526020600020906002020160010154604051808473ffffffffffffffffffffffffffffffffffffffff1673ffffffffffffffffffffffffffffffffffffffff168152602001838152602001828152602001935050505060405180910390a18080600101915050610883565b50565b7fd71555f8373920d954242d5db63456384b30f02f8dabb8c5689f8e7c892ea4a133600183604051808473ffffffffffffffffffffffffffffffffffffffff1673ffffffffffffffffffffffffffffffffffffffff1681526020018315151515815260200180602001828103825283818151815260200191508051906020019080838360005b838110156109f45780820151818401526020810190506109d9565b50505050905090810190601f168015610a215780820380516001836020036101000a031916815260200191505b5094505050505060405180910390a150565b610a3b610cc4565b6003600080815260200190815260200160002060408051908101604052908160008201548152602001600182015481525050905060008090505b600454811015610b7b5760008090505b600454811015610af357826020015160036000838152602001908152602001600020600101541115610ae657600360008281526020019081526020016000206040805190810160405290816000820154815260200160018201548152505092505b8080600101915050610a85565b50816020015160036000838152602001908152602001600020600101541415610b6e576001600360008381526020019081526020016000209080600181540180825580915050906001820390600052602060002090600202016000909192909190915060008201548160000155600182015481600101555050505b8080600101915050610a75565b5060008090505b600180549050811015610cc0576000809054906101000a900473ffffffffffffffffffffffffffffffffffffffff1673ffffffffffffffffffffffffffffffffffffffff16630d17fcc130600184815481101515610bdc57fe5b906000526020600020906002020160000154600185815481101515610bfd57fe5b9060005260206000209060020201600101546040518463ffffffff167c0100000000000000000000000000000000000000000000000000000000028152600401808473ffffffffffffffffffffffffffffffffffffffff1673ffffffffffffffffffffffffffffffffffffffff1681526020018381526020018281526020019350505050600060405180830381600087803b158015610c9b57600080fd5b505af1158015610caf573d6000803e3d6000fd5b505050508080600101915050610b82565b5050565b60408051908101604052806000815260200160008152509056fea165627a7a72305820c5c444e940e257dd1837bf50bccf5bf1b61c2c9d3cdcfb27d0c0d2137b5f1e6f0029",
  "source": "pragma solidity ^0.5.2;\nimport \"./ElectionOracle.sol\";\n\ncontract Election { //the whole election process is controlled by admin\n    \n    address oracle_address;\n    Candidate[] public winnerList;\n    \n    struct Candidate {\n        uint candidateID;\n        uint voteReceived;\n    }\n    \n    mapping(address => bool) voters; //avoid duplicated vote from users\n    \n    mapping(uint=>Candidate) public candidates; //store candidates info\n    \n    uint public candidatesCount; //number of candidates in the election\n    \n    event periodControl(address me,bool status); //control the election period\n    event voteValidation(address me,bool validity, string _candidateName); //tell if the vote is valid\n    event electionWinner(address me,uint winnerID, uint voteReceived); //emit winners' info\n    \n    function addCandidate() public { //candidate is added by admin\n        candidatesCount++;\n        candidates[candidatesCount] = Candidate(candidatesCount, 0);\n    }\n    \n    function vote(uint _candidateID) public {\n        //check whether the user voted before and\n        //check whether there are valid candidates for voting\n        if(!voters[msg.sender] && _candidateID > 0 && _candidateID <= candidatesCount) {\n        //record down the voter to avoid duplicated vote\n        voters[msg.sender] = true;\n        //update candidate vote recevied\n        candidates[_candidateID].voteReceived++;\n        //tell the console it is a valid vote\n        ElectionOracle(oracle_address).voteReceivedValidation(address(msg.sender),true,_candidateID);\n        }\n        //tell the console it is a invalid vote\n        ElectionOracle(oracle_address).voteReceivedValidation(address(msg.sender),false,_candidateID);\n    }\n    \n    function finalResult() public {\n        Candidate memory winner = candidates[0];\n        //find out the election winner\n        for(uint i=0;i<candidatesCount;i++) {\n            for(uint j=0;j<candidatesCount;j++) {\n                if(candidates[j].voteReceived > winner.voteReceived){\n                winner = candidates[j];\n                }\n            }\n        //double check if there are candidates with same amount of votes\n        if(candidates[i].voteReceived == winner.voteReceived)\n        winnerList.push(candidates[i]);\n        }\n        //emit all winners to the console\n        for(uint i=0;i<winnerList.length;i++) {\n            ElectionOracle(oracle_address).getWinnerData(address(this)\n            ,winnerList[i].candidateID\n            ,winnerList[i].voteReceived);\n        }\n    } \n    \n    function currentResult(uint _candidateID) public view returns (uint,uint){\n        return (_candidateID,candidates[_candidateID].voteReceived); //emit candidate's data\n    }\n    \n    function startElection() public {\n        emit periodControl(address(this),true); //start the election\n    } \n    \n    function endElection() public { \n        emit periodControl(address(this),false); //end the election\n    }\n    \n    function setOracle(address o) public { \n        oracle_address = o; //set oracle address\n    }\n    \n    function getOracle() public view returns (address) {\n        return oracle_address; //return oracle address\n    }\n    \n    function callbackWinnerRecord() public {\n        for(uint i=0;i<winnerList.length;i++) { //callback function for electionWinner\n        emit electionWinner(address(this)\n            ,winnerList[i].candidateID\n            ,winnerList[i].voteReceived);\n        }\n    }\n    \n    function callbackVoteRecord(string memory _candidateName) public {\n        emit voteValidation(address(msg.sender),true,_candidateName); //callback function for voteValidation\n    }\n}",
  "sourcePath": "/Users/Unnat/Code/CS4389_Project/contracts/Election.sol",
  "compiler": {
    "name": "solc",
    "version": "0.5.2+commit.1df8f40c.Emscripten.clang"
  },
  "schemaVersion": "3.0.6",
  "updatedAt": "2019-04-26T06:55:32.040Z",
  "devdoc": {
    "methods": {}
  },
  "userdoc": {
    "methods": {}
  }
}