{
  "contractName": "ElectionOracle",
  "abi": [
    {
      "anonymous": false,
      "inputs": [
        {
          "indexed": false,
          "name": "me",
          "type": "address"
        },
        {
          "indexed": false,
          "name": "winnerID",
          "type": "uint256"
        },
        {
          "indexed": false,
          "name": "winnerName",
          "type": "string"
        },
        {
          "indexed": false,
          "name": "voteReceived",
          "type": "uint256"
        }
      ],
      "name": "ElectionWinner",
      "type": "event",
      "signature": "0xee02b02cba0e3580d2aebcc3e0af3dac4c0007a76b57ca3827175ac763c37a8f"
    },
    {
      "anonymous": false,
      "inputs": [
        {
          "indexed": false,
          "name": "me",
          "type": "address"
        },
        {
          "indexed": false,
          "name": "status",
          "type": "bool"
        }
      ],
      "name": "periodControl",
      "type": "event",
      "signature": "0xeab25f4a283ebd00f95e6c0fbaa4b5d98a04380c240e10c6d7132b87d44354b0"
    },
    {
      "anonymous": false,
      "inputs": [
        {
          "indexed": false,
          "name": "me",
          "type": "address"
        },
        {
          "indexed": false,
          "name": "validity",
          "type": "bool"
        }
      ],
      "name": "voteValidation",
      "type": "event",
      "signature": "0x742256ae82312ebd88d2140c7a7be31475a7f70e269adf82931d4c77bddc4fd6"
    },
    {
      "constant": false,
      "inputs": [
        {
          "name": "client_address",
          "type": "address"
        },
        {
          "name": "_winnerID",
          "type": "uint256"
        },
        {
          "name": "_winnerName",
          "type": "string"
        },
        {
          "name": "_voteReceived",
          "type": "uint256"
        }
      ],
      "name": "getWinnerData",
      "outputs": [],
      "payable": false,
      "stateMutability": "nonpayable",
      "type": "function",
      "signature": "0x97d76917"
    },
    {
      "constant": false,
      "inputs": [
        {
          "name": "client_address",
          "type": "address"
        },
        {
          "name": "electionStatus",
          "type": "bool"
        }
      ],
      "name": "electionPeriodControl",
      "outputs": [],
      "payable": false,
      "stateMutability": "nonpayable",
      "type": "function",
      "signature": "0x84225f4c"
    },
    {
      "constant": false,
      "inputs": [
        {
          "name": "client_address",
          "type": "address"
        },
        {
          "name": "validity",
          "type": "bool"
        }
      ],
      "name": "voteReceivedValidation",
      "outputs": [],
      "payable": false,
      "stateMutability": "nonpayable",
      "type": "function",
      "signature": "0x698ccf1b"
    }
  ],
  "bytecode": "0x608060405234801561001057600080fd5b50610370806100206000396000f3fe608060405234801561001057600080fd5b506004361061005e576000357c010000000000000000000000000000000000000000000000000000000090048063698ccf1b1461006357806384225f4c146100b357806397d7691714610103575b600080fd5b6100b16004803603604081101561007957600080fd5b81019080803573ffffffffffffffffffffffffffffffffffffffff1690602001909291908035151590602001909291905050506101b0565b005b610101600480360360408110156100c957600080fd5b81019080803573ffffffffffffffffffffffffffffffffffffffff169060200190929190803515159060200190929190505050610223565b005b6101ae6004803603608081101561011957600080fd5b81019080803573ffffffffffffffffffffffffffffffffffffffff169060200190929190803590602001909291908035906020019064010000000081111561016057600080fd5b82018360208201111561017257600080fd5b8035906020019184600183028401116401000000008311171561019457600080fd5b909192939192939080359060200190929190505050610296565b005b7f742256ae82312ebd88d2140c7a7be31475a7f70e269adf82931d4c77bddc4fd68282604051808373ffffffffffffffffffffffffffffffffffffffff1673ffffffffffffffffffffffffffffffffffffffff168152602001821515151581526020019250505060405180910390a15050565b7feab25f4a283ebd00f95e6c0fbaa4b5d98a04380c240e10c6d7132b87d44354b08282604051808373ffffffffffffffffffffffffffffffffffffffff1673ffffffffffffffffffffffffffffffffffffffff168152602001821515151581526020019250505060405180910390a15050565b7fee02b02cba0e3580d2aebcc3e0af3dac4c0007a76b57ca3827175ac763c37a8f8585858585604051808673ffffffffffffffffffffffffffffffffffffffff1673ffffffffffffffffffffffffffffffffffffffff168152602001858152602001806020018381526020018281038252858582818152602001925080828437600081840152601f19601f820116905080830192505050965050505050505060405180910390a1505050505056fea165627a7a723058200108be7b2cbeac611e7ddc54f124d80b3120a243d1c1b38747a5bcae10fbdf700029",
  "source": "pragma solidity ^0.5.2;\n\ncontract ElectionOracle {\n    \n    //emit winners' info\n    event ElectionWinner(address me\n    ,uint winnerID\n    ,string winnerName\n    ,uint voteReceived); \n    \n    //election start/end signal\n    event periodControl(address me, bool status);\n    \n    //tell if the vote is valid\n    event voteValidation(address me, bool validity);\n     \n    function getWinnerData(address client_address,\n                           uint _winnerID,\n                           string calldata _winnerName,\n                           uint _voteReceived) external {\n        \n        emit ElectionWinner(client_address,_winnerID,_winnerName,_voteReceived);\n    }\n    \n    function electionPeriodControl(address client_address, bool electionStatus) external {\n        emit periodControl(client_address, electionStatus);\n    }\n    \n    function voteReceivedValidation(address client_address, bool validity) external {\n        emit voteValidation(client_address, validity);\n    }\n}",
  "sourcePath": "/Users/Unnat/Code/CS4389_Project/contracts/ElectionOracle.sol",
  "compiler": {
    "name": "solc",
    "version": "0.5.2+commit.1df8f40c.Emscripten.clang"
  },
  "schemaVersion": "3.0.6",
  "updatedAt": "2019-04-24T12:57:57.980Z",
  "devdoc": {
    "methods": {}
  },
  "userdoc": {
    "methods": {}
  }
}