{
  "contractName": "Login",
  "abi": [
    {
      "anonymous": false,
      "inputs": [
        {
          "indexed": false,
          "name": "",
          "type": "address"
        },
        {
          "indexed": false,
          "name": "",
          "type": "string"
        }
      ],
      "name": "Registered",
      "type": "event"
    },
    {
      "anonymous": false,
      "inputs": [
        {
          "indexed": false,
          "name": "",
          "type": "string"
        }
      ],
      "name": "Role",
      "type": "event"
    },
    {
      "constant": false,
      "inputs": [
        {
          "name": "user",
          "type": "address"
        }
      ],
      "name": "login",
      "outputs": [],
      "payable": false,
      "stateMutability": "nonpayable",
      "type": "function"
    }
  ],
  "bytecode": "0x608060405234801561001057600080fd5b5060ba8061001f6000396000f3fe6080604052348015600f57600080fd5b50600436106045576000357c01000000000000000000000000000000000000000000000000000000009004806335a6861a14604a575b600080fd5b608960048036036020811015605e57600080fd5b81019080803573ffffffffffffffffffffffffffffffffffffffff169060200190929190505050608b565b005b5056fea165627a7a723058200278456fcea57eedaa6006e45ab745e79f520ea79048857d7017de880253ce340029",
  "source": "pragma solidity ^0.5.2;\n\ncontract Login {\n    struct userInfo {\n        uint userID;\n        string userName;\n        string userRole;\n    }\n    \n    mapping(address=>userInfo) userList;\n    \n    event Registered(address,string);\n    event Role(string);\n    \n    function login(address user) public {\n        \n    }\n}",
  "sourcePath": "/Users/Unnat/Code/CS4389_Project/contracts/Login.sol",
  "compiler": {
    "name": "solc",
    "version": "0.5.2+commit.1df8f40c.Emscripten.clang"
  },
  "schemaVersion": "3.0.6",
  "updatedAt": "2019-04-25T13:49:24.795Z",
  "devdoc": {
    "methods": {}
  },
  "userdoc": {
    "methods": {}
  }
}